{
  "_format": "hh-sol-artifact-1",
  "contractName": "YatrikaLedger",
  "sourceName": "contracts/YatrikaLedger.sol",
  "abi": [
    {
      "anonymous": false,
      "inputs": [
        {
          "indexed": true,
          "internalType": "bytes32",
          "name": "journeyId",
          "type": "bytes32"
        },
        {
          "indexed": false,
          "internalType": "uint64",
          "name": "timestamp",
          "type": "uint64"
        },
        {
          "indexed": true,
          "internalType": "address",
          "name": "recorder",
          "type": "address"
        }
      ],
      "name": "JourneyEnded",
      "type": "event"
    },
    {
      "anonymous": false,
      "inputs": [
        {
          "indexed": true,
          "internalType": "bytes32",
          "name": "journeyId",
          "type": "bytes32"
        },
        {
          "indexed": false,
          "internalType": "uint64",
          "name": "startDate",
          "type": "uint64"
        },
        {
          "indexed": false,
          "internalType": "uint64",
          "name": "endDate",
          "type": "uint64"
        },
        {
          "indexed": true,
          "internalType": "address",
          "name": "recorder",
          "type": "address"
        }
      ],
      "name": "JourneyStarted",
      "type": "event"
    },
    {
      "anonymous": false,
      "inputs": [
        {
          "indexed": true,
          "internalType": "bytes32",
          "name": "journeyId",
          "type": "bytes32"
        },
        {
          "indexed": false,
          "internalType": "bytes32",
          "name": "dataHash",
          "type": "bytes32"
        },
        {
          "indexed": false,
          "internalType": "uint64",
          "name": "timestamp",
          "type": "uint64"
        },
        {
          "indexed": true,
          "internalType": "address",
          "name": "recorder",
          "type": "address"
        }
      ],
      "name": "PanicAlerted",
      "type": "event"
    },
    {
      "inputs": [
        {
          "internalType": "bytes32",
          "name": "journeyId",
          "type": "bytes32"
        },
        {
          "internalType": "bytes32",
          "name": "dataHash",
          "type": "bytes32"
        }
      ],
      "name": "alertPanic",
      "outputs": [],
      "stateMutability": "nonpayable",
      "type": "function"
    },
    {
      "inputs": [
        {
          "internalType": "bytes32",
          "name": "journeyId",
          "type": "bytes32"
        }
      ],
      "name": "endJourney",
      "outputs": [],
      "stateMutability": "nonpayable",
      "type": "function"
    },
    {
      "inputs": [
        {
          "internalType": "bytes32",
          "name": "journeyId",
          "type": "bytes32"
        },
        {
          "internalType": "uint64",
          "name": "startDate",
          "type": "uint64"
        },
        {
          "internalType": "uint64",
          "name": "endDate",
          "type": "uint64"
        }
      ],
      "name": "startJourney",
      "outputs": [],
      "stateMutability": "nonpayable",
      "type": "function"
    }
  ],
  "bytecode": "0x608060405234801561001057600080fd5b50610583806100206000396000f3fe608060405234801561001057600080fd5b50600436106100415760003560e01c80635f6d2ab114610046578063da50f6d514610062578063fd8a47131461007e575b600080fd5b610060600480360381019061005b91906102b3565b61009a565b005b61007c600480360381019061007791906102f3565b610134565b005b61009860048036038101906100939190610360565b610186565b005b6000801b82036100df576040517f08c379a00000000000000000000000000000000000000000000000000000000081526004016100d690610410565b60405180910390fd5b3373ffffffffffffffffffffffffffffffffffffffff16827f409f6779c12787d4e9b16180c3fb0494699cb2bdcf39c471712857ee9bbe7326834260405161012892919061044e565b60405180910390a35050565b3373ffffffffffffffffffffffffffffffffffffffff16817ffe6d1cf44e66b3aacc2ebbdd31c0809edffbb320fd4f00699ac7d6312dc4e4d64260405161017b9190610477565b60405180910390a350565b6000801b83036101cb576040517f08c379a00000000000000000000000000000000000000000000000000000000081526004016101c290610410565b60405180910390fd5b8167ffffffffffffffff168167ffffffffffffffff161015610222576040517f08c379a000000000000000000000000000000000000000000000000000000000815260040161021990610504565b60405180910390fd5b3373ffffffffffffffffffffffffffffffffffffffff16837f481d5ad83c5132dd6e3f599d6ed4c6bf2977c59b3147c0360a98ac2a24b8693a848460405161026b929190610524565b60405180910390a3505050565b600080fd5b6000819050919050565b6102908161027d565b811461029b57600080fd5b50565b6000813590506102ad81610287565b92915050565b600080604083850312156102ca576102c9610278565b5b60006102d88582860161029e565b92505060206102e98582860161029e565b9150509250929050565b60006020828403121561030957610308610278565b5b60006103178482850161029e565b91505092915050565b600067ffffffffffffffff82169050919050565b61033d81610320565b811461034857600080fd5b50565b60008135905061035a81610334565b92915050565b60008060006060848603121561037957610378610278565b5b60006103878682870161029e565b93505060206103988682870161034b565b92505060406103a98682870161034b565b9150509250925092565b600082825260208201905092915050565b7f6a6f75726e657949642069732072657175697265640000000000000000000000600082015250565b60006103fa6015836103b3565b9150610405826103c4565b602082019050919050565b60006020820190508181036000830152610429816103ed565b9050919050565b6104398161027d565b82525050565b61044881610320565b82525050565b60006040820190506104636000830185610430565b610470602083018461043f565b9392505050565b600060208201905061048c600083018461043f565b92915050565b7f456e642064617465206d7573742062652061667465722073746172742064617460008201527f6500000000000000000000000000000000000000000000000000000000000000602082015250565b60006104ee6021836103b3565b91506104f982610492565b604082019050919050565b6000602082019050818103600083015261051d816104e1565b9050919050565b6000604082019050610539600083018561043f565b610546602083018461043f565b939250505056fea26469706673582212204dce268f7a52b168988af25c6fdabe0d5b6745723b9a29cf33527eaf0ae64e1264736f6c63430008140033",
  "linkReferences": {},
  "deployedLinkReferences": {}
}